S014000052544F532D4578616D706C652E73726563CF
S214400000502C40208513400083134000831340004B
S2144000108313400083134000831340000000000019
S21440002000000000000000000000000081174000B3
S214400030831340000000000021184000851840004F
S2144000408313400083134000831340008313400013
S2144000508313400083134000831340008313400003
S2144000608313400000000000490E40005D0E400033
S214400070710E4000831340008313400083134000FA
S214400080850E4000990E40008313400083134000C5
S21440009083134000831340008313400083134000C3
S2144000A083134000831340008313400083134000B3
S2144000B083134000831340008313400083134000A3
S2144000C08313400083134000831340008313400093
S2144000D08313400083134000831340008313400083
S2144000E08313400083134000831340008313400073
S2144000F08313400083134000831340008313400063
S2144001008313400083134000831340008313400052
S21440011083134000000000000000000000000000C4
S2144001208313400083134000831340008313400032
S2144001308313400083134000831340008313400022
S2144001408313400083134000831340008313400012
S2144001508313400083134000831340008313400002
S214400160831340008313400010B5054C237833B901
S214400170044B13B10448AFF300800123237010BD35
S214400180C009402000000000189440000C4B43B1CA
S2144001900C480D4910B5AFF300800C48036823B9EE
S2144001A010BD0A48036833B97047094B002BF7D097
S2144001B0BDE810401847064B002BF5D0184700BF47
S2144001C00000000018944000C409402018944000E5
S2144001D0000000004FF07E530361002343618361BB
S2144001E0C361036243628362012280F82C200A4A7C
S2144001F002638363C363036443648364C36400230A
S21440020080F85030436580F8583080F85930C365E0
S21440021080F86030704700BF0000204138B52DEDB3
S214400220028B04460D4691ED008A80ED008AD1EDA2
S214400230017AF5EE407AF1EE10FA01D0CB6803BBB6
S214400240234B6360D5ED027AF5EE407AF1EE10FA74
S21440025001D0EB6843BB1E4BA360EB68E36094F8A9
S2144002602C300BB984ED0C8AF2EE047A77EEC87A1D
S214400270F0EE086A87EEA67A84ED0D7ABDEC028B26
S21440028038BD9FED147A67EE877A17EE900A124BC8
S2144002909847F6EE007A07EE100A67EE277A67EE82
S2144002A0A77AC4ED017ACDE79FED0A7A67EE877AA2
S2144002B017EE900A084B9847F6EE007A07EE100ABB
S2144002C067EE277A67EEA77AC4ED027AC5E700BFE5
S2144002D0FFFF7F7F35FA8E3C213E400030B585B02B
S2144002E00546064B0FCB8DE80F0069462846044B63
S2144002F098472846034B984705B030BD588D400078
S2144003001D024000D501400010B4044610310FC90C
S21440031084E80F0020465DF8044B704710B52DED7D
S214400320048B044608EE101A90ED077AD0ED067A54
S21440033067EEA76AB6EE009A79EE666A27EE076A17
S214400340D0ED045A27EE257AD0ED055A67EEA57A09
S21440035076EEC66A16EE901A77EE277A17EE900A71
S2144003602F4B9847DFED2F8A68EE288A07EE900AD3
S21440037077EEE88A68EE898A18EE900A2A4B984704
S21440038008EE100A18EE900A284B984707EE900A97
S214400390B1EE675A94ED046AD4ED055AD4ED067A68
S2144003A0D4ED074A9FED227A25EE874A67EE873AD4
S2144003B026EE073A24EE877A68EE066A76EEC46A38
S2144003C076EEE36A65EE242A76EEE26AC4ED046AC7
S2144003D068EE256A76EE836A76EE876A67EE852A49
S2144003E076EEE26AC4ED056A68EE277A77EEC77A5B
S2144003F077EE837A65EE855A77EEA57AC4ED067A6F
S21440040028EE248A38EE238A38EE448A26EE056A99
S21440041038EE068A84ED078ABDEC048B10BD00BF1B
S2144004203D3F400035FA8E3CA93D4000213E40000D
S2144004300000000070B52DED0A8B8EB0044603A870
S21440044080E80E009DED229A04F120031CAA07CAFC
S21440045083E8070094F82C30BBB1D4ED0D7A29EE32
S214400460277AD4ED0C7A77EEC77AC4ED0C7A94ED01
S214400470007AF4EEC77AF1EE10FA06D584ED0C7ADF
S214400480002384F82C3084F8583094ED056AD4ED77
S214400490079A94ED047AD4ED06AA66EE296A67EECA
S2144004A02A7A36EEE7BA69EEAAAA26EE076A7AEE06
S2144004B086AA27EE077AF6EE007A37EE677A69EE76
S2144004C0A99A77EE299A012384F850309DED1C8A2C
S2144004D09DED1DAADDED1E8AB5EE40AAF1EE10FA9E
S2144004E018BF0023B5EE408AF1EE10FA03F0010380
S2144004F018BF00238BB3F5EE408AF1EE10FA2CD1EC
S2144005009FEDE88AF0EE488AB0EE48AA012384F8C8
S2144005105930DDED1FBA9DED20CADDED21CAB5EE9E
S21440052040CAF1EE10FA18BF0023F5EE40BAF1EEDD
S21440053010FA03F0010318BF0023002B00F0898057
S214400540F5EE40CAF1EE10FA40F08380DFEDD59A22
S214400550F0EE696AB0EE697A0DE1626DE3689A4240
S21440056059D868EE087A2AEE0A7A77EE877A28EE25
S214400570A87A77EE877ACC4B17EE902AA3EB6203E5
S21440058006EE903A9FEDC97A67EE877A67EEA67ACE
S21440059067EEA67A9FEDC67A77EE677A67EEA67A1A
S2144005A028EE278A2AEE276A68EEA78A29EE867AF8
S2144005B06AEEA87A37EE67AA6BEE288A69EE886AF2
S2144005C078EEE68A2AEE888A2BEE066A38EE468A67
S2144005D084ED0EAAC4ED0F8A84ED108A94F82C3070
S2144005E073B96AEE0A7A28EEA87A77EE877A48EEEA
S2144005F0087A94ED017AF4EEC77AF1EE10FA1ED836
S214400600002384F85030636D092B8CBF0A220022E9
S2144006109B1A63657AE707AE04F1100595E80F006C
S21440062086E80F002046A34B984796E80F0085E8DB
S2144006300F0000236365012384F8583091E7636D0B
S214400640013363659FED978AF0EE488AB0EE48AA7C
S2144006505CE7002384F86030E26DE3689A4200F27B
S2144006602D81D4ED056A94ED067AD4ED044AD4ED96
S214400670075A26EE875A64EEA57A35EE275A64EE78
S214400680A47AB6EE006A77EEC67A27EE076A37EEA9
S214400690866A27EE257A66EEA46A77EE664A6AEEA2
S2144006A0AC5A69EE8C7A75EEE75A69EEAB9A6BEE09
S2144006B02CCA79EEEC9A6BEE0C6A6AEEAB7A76EE62
S2144006C0E76A25EEA57A69EEA97A37EE277A66EECE
S2144006D0A67A37EE277A744B17EE102AA3EB6203FE
S2144006E004EE103ADFED717A27EE277A27EE047A89
S2144006F027EE047ADFED6E7A77EEC77A67EE847A75
S21440070067EEA55A67EEA99A67EEA67A24EEA97A0E
S21440071066EE276A37EE667A65EE277A64EEA56A55
S21440072077EEE66A66EE257A65EE299A77EEE99ADE
S21440073084ED117AC4ED126AC4ED139A94F82C3005
S2144007407BB967EE077A26EEA66A77EE867A49EE9A
S214400750A97A94ED026AF4EEC67AF1EE10FA00F247
S214400760C880002384F85930E36D092B8CBF0A22D9
S21440077000229B1AE365D4ED0C7A37EE0A7A27EE10
S214400780277A9FED4D6ADDED035A65EE865A37EEC1
S214400790257A27EE097A78EEA66A66EEA76ADDED38
S2144007A0048A68EE868A76EEA86A66EE896A38EE2D
S2144007B0298A28EE278ADDED057A67EE867A38EEB6
S2144007C0278A68EE097A94ED043AD4ED053A94ED1A
S2144007D0064A94ED075A63EEC75A26EE846A75EECB
S2144007E0C65A27EE856A75EEC65A75EE835A67EE88
S2144007F0034A27EE846A74EE864A26EE856A74EECD
S214400800C64A74EEA34A26EE836A67EEA32A36EEFD
S214400810626A67EE052A36EE226A36EE046A67EEAC
S214400820837A66EEA36A77EEA67A27EE047A77EEA8
S214400830C77A77EE857A25EEA57A64EEA46A37EE17
S214400840267A66EE066A37EE267A67EEA76A37EEAF
S214400850267A154B17EE102AA3EB620305EE103AE4
S214400860DFED126A27EE267A27EE057A27EE057A1E
S214400870DFED0F6A36EEC77A27EE057A67EE255A21
S214400880C4ED045A67EE246AC4ED056A27EE066A8C
S21440089084ED066A27EE277A84ED077A0EB0BDEC23
S2144008A00A8B70BD0000000012141F5F12D3363F43
S2144008B0FF51D83FD501400035FA0E3C8DED0BBABE
S2144008C0CDED0CAACDED0D9A20AB93E803008DE854
S2144008D003001F9B0EAA12E907000B4DA8470146CE
S2144008E020460A4B98470023E365012384F860308E
S2144008F0B7E6E36D0133E365DFED059AF0EE696A2E
S214400900B0EE697A37E700BF710940001D0340002A
S2144009100000000030B591B0054609AC84E80E00F2
S21440092000230D930E930F93179B069303AB10AAC9
S21440093012E9070083E8070014AB93E807008DE848
S214400940070094E80E002846074CA04795F82C3040
S21440095013B195F858300BB111B030BD0021284680
S214400960024B9847F8E700BF350440001D0340009F
S21440097082B000B585B00DF1100E0EE90700079362
S214400980DDED013ADDED026A9DED034ADDED077AC5
S2144009909DED085A9DED096A66EE265A24EE057AC4
S2144009A075EEC75A24EE277A26EE236A37EE466A55
S2144009B025EE235A67EEA67A35EE675A25EEA57AD7
S2144009C066EE067A37EE277A65EE057A37EE277AB0
S2144009D02D4B17EE102AA3EB620203EE102ADFED32
S2144009E02B2A27EE227A27EE037A27EE037ADFEDCC
S2144009F0284A34EEC77A67EE037A67EEA55A27EEA2
S214400A00866A67EE857A24EE065A26EEA77A35EE93
S214400A10475A67EEA37A24EE254A77EEC47A66EE06
S214400A20A56A26EE236A76EEC66A25EE057A67EE56
S214400A30A77A77EE277A66EEA66A77EEA67A17EE5C
S214400A40902AA3EB620307EE103A67EEA27A67EEAF
S214400A50877A67EE877A74EEE77A67EE877A67EE8C
S214400A60857A17EE901A15EE900A0A4B9847DFEDF6
S214400A700A7A07EE100A67EE277A17EE900A05B054
S214400A805DF804EB02B0704712141F5F12D3363F76
S214400A90FF51D83F3D3F4000E02E654210B510481C
S214400AA0104B98473E2100200F4B98470F4CA047CD
S214400AB00028FCD00E4B98470E4A0F4B9A620F4CBC
S214400AC0A0470028FCD002200D4B984700200D4B35
S214400AD098470D4B98470248024B984710BD00BFB9
S214400AE080D1F00859154000490F40009D0F400046
S214400AF0AD0F4000013F182000060E40BD0F4000DD
S214400B00AD0E4000E50E40004D1440002DE9F0418A
S214400B1080B90C469046002A0FDD8F18084E094DC6
S214400B20306821462B6898470134BC42F8D140468D
S214400B30BDE8F0814FF0FF38F9E78046F7E700BFA1
S214400B40D80B4020D00B40200138022815D82DE97C
S214400B50F0410E4614469AB10D46DFF838800C4FE9
S214400B60D8F8000015F8011B3B68984700280ADBB8
S214400B70A81B013CF4D1BDE8F0814FF0FF30704730
S214400B801046BDE8F0814FF0FF30BDE8F08100BF71
S214400B90D40B4020D80B4020F8B54FF400425B4BB6
S214400BA05A60BFF34F8FBFF36F8F594B0021C3F886
S214400BB05012BFF34F8FBFF36F8F5A6942F4003223
S214400BC05A61BFF34F8FBFF36F8FC3F88410BFF3E4
S214400BD04F8FD3F88070C7F34E35C7F3C9076E0101
S214400BE04FEA877C43F6E07E1C4606EA0E006246E5
S214400BF03B4640EA0201C4F86012013B02F1404223
S214400C00B3F1FF3FF5D1013D203EB5F1FF3FECD1BA
S214400C10BFF34F8F3E4B5A6942F480325A61BFF35E
S214400C204F8FBFF36F8F3B4A3B495160A1F58071B0
S214400C305160BFF34F8FBFF36F8FD3F8902222F0EF
S214400C400102C3F89022D3F8942222F00102C3F89E
S214400C509422BFF34F8FBFF36F8F0A202F4CA047CD
S214400C600B20A0470C20A0471020A0471120A047EB
S214400C702B4B4FF480721A61C3F8A0201A63A3F579
S214400C8080634FF400625A61C3F8A0205A66C3F8E6
S214400C9090205A651A62C3F88420196F21F40061C7
S214400CA01967596F21F400615967C3F8C020C3F82B
S214400CB0D420C3F8B0204FF400121A66C3F8902030
S214400CC05A655A62C3F88020196F21F400111967DB
S214400CD0596F21F4001159675A60124AD2F81431FC
S214400CE043F01003C2F814310F4B10221A66C3F8B3
S214400CF090205A655A62C3F88020196F11431967CD
S214400D00596F114359675A60F8BD00BF50180E40DE
S214400D1000ED00E0000C0E400C08005ACD0F4000DD
S214400D2000120E400080084000100E4001637047DD
S214400D30416370474264B1F1C05F3AD013D8B1F115
S214400D40006F25D0B1F1805F0AD1036F134303676C
S214400D50436F416F0B4023EA02034367426070478C
S214400D600029FBD17047B1F1205F21D009D8B1F1FD
S214400D70005FF3D1036F13430367436F1343436727
S214400D80ECE7B1F1405F13D0B1F1605F10D0E5E71A
S214400D9010B4016F046FD34321401C4619400167CD
S214400DA0436F416F0B402340436742605DF8044BFE
S214400DB07047036F016F0B4023EA02030367436FDC
S214400DC013434367CAE710B4019C41644CB90166BB
S214400DD04BB101654AB94163016101605DF8044B5E
S214400DE070474166F4E74165F4E70163F4E7C06C99
S214400DF07047806C704700002DE9F04104468846F5
S214400E000E4B9847054620460D4B9847054013D055
S214400E100C4C04F1600603E0B4420DD010345DB1D2
S214400E2020684045F8D161682942F5D0E368984784
S214400E30636825EA0305EFE7BDE8F081EF0D400063
S214400E40F30D4000DC09402008B50A210148024B5A
S214400E50984708BD000E0E40F90D400008B50B211E
S214400E600148024B984708BD00100E40F90D40005F
S214400E7008B50C210148024B984708BD00120E40A9
S214400E80F90D400008B510210148024B984708BDAF
S214400E9000140E40F90D400008B511210148024BE0
S214400EA0984708BD00160E40F90D4000032811D0A3
S214400EB0042812D002280CBF4FF480710021084A43
S214400EC0136B23F440730B431363936E13F0080FB6
S214400ED0FBD070474FF44071F1E74FF40071EEE7F6
S214400EE000060E40174A136B23F070031843106336
S214400EF0936E13F0080F0AD14FF4805311498A6E4F
S214400F0012F0080F03D1013BF9D1012070470D4A7A
S214400F10136B23F0030343F002031363936E13F043
S214400F20080F0AD14FF4805306498A6E12F0080F14
S214400F3005D1013BF9D101207047002070470020C1
S214400F40704700BF00060E40A0B90E48036A09026B
S214400F5089B20D4A1A400D4B1343194301620246AB
S214400F60936E13F0010FFBD0064A116A084B0B43F1
S214400F701362704703490B6A064A1A40064B1343EE
S214400F800B62704700060E40FCFFC8FF01003700AA
S214400F9000003701FCFFC8FE02003701024B986E86
S214400FA000F48030704700BF00060E404FF00052FD
S214400FB0014B9A62704700BF00060E40024B986E87
S214400FC000F00200704700BF00060E4000F07F00B1
S214400FD0054BC3F80C01D3F80C2142F01022C3F89D
S214400FE00C210020704700BF00060E40284B994257
S214400FF04BD8A3F57A5399422DD910B4254CA4FB6F
S2144010000234A40B033C244B0B449B00B2FBF3F28C
S214401010033AFF2C1DD9002101316408FF2C01D969
S2144010200629F9D9FF2A07D9062905D801315208D9
S214401030FF2A01D90629F9D913029BB2090401F403
S214401040E0210B43E4B22343036100205DF8044BE8
S21440105070470021E6E74900B2FBF1F2033AFF2A67
S21440106011D9002301335208FF2A01D9062BF9D99A
S214401070110289B21B0403F4E0230B43D2B21A4395
S2144010800261002070470023F2E70120704700BF4E
S214401090801A0600F11976050012FD3F08B54FF09C
S2144010A0FF328262026A80220260026B082202607D
S2144010B020220260042202600A684968034B98476F
S2144010C0012814BF0020012008BD00BFED0F4000DE
S2144010D0CB68002B4BD070B48C68002646604A68BC
S2144010E0120202F4407242F480520D7C2D0405F444
S2144010F0FE052A434260C6604D685DB10A78012D00
S21440110002DD4E7846EA0222022D04DD897841EA65
S214401110022200E00022C2600122026006E0012BAB
S21440112019D0026B04F8012B013B18D0026A12F466
S214401130807F22D112F0020FF1D147F23052016A7D
S21440114011F4807F15D1013A15D011F0020FE6D187
S214401150002BF4D103E002230360036B2370036A81
S21440116013F0010FFBD0036A002070BC70470120CB
S21440117070470520F9E70920F7E70520F5E7CB6833
S214401180002B43D070B48C68002646600A7C12045C
S21440119002F4FE024D682D0205F440752A43426073
S2144011A0C6604D685DB10A78012D02DD4E7846EA8C
S2144011B00222022D04DD897841EA022200E0002264
S2144011C0C26004E014F8012B4263013B0FD0026A70
S2144011D012F4807F1ED112F0040FF3D1026A12F48B
S2144011E0807F15D112F0040FECD1002BF6D1036AA4
S2144011F013F4807F11D113F0040FF8D0022303605C
S214401200036A13F0010FFBD0002004E00120704772
S214401210052000E0052070BC70470520FBE7000075
S21440122000B587B0002306AA02F8153D03920122B6
S21440123004928DF814108DF80430029301A9024BE5
S214401240984707B05DF804FB7F114000436913F0F0
S214401250020F02D0C16100207047012070474369E9
S21440126013F0010F03D083690B70002070470120F4
S214401270704710B40B01934214D9C9004B0803EBD6
S214401280C202B2FBF1F2D3085C1E4FF6FE718C42EE
S21440129001D9012017E0416841F4002141600CE08B
S2144012A0012010E0590801EBC202B2FBF3F2D3086A
S2144012B05C1E4FF6FE718C42F2D8120402F4E02215
S2144012C01A43026200205DF8044B7047084BC0F892
S2144012D0E430002343604362836288230360242310
S2144012E003604FF4807303604FF40023036070473D
S2144012F00041535570B505460C4616460F4B984769
S21440130000220F4B1A60A4B13246216828460D4B86
S2144013109847024678B96368A1680B4321690B4336
S214401320E1680B4306490B6069680B436B601046E7
S21440133070BD0122FBE70122F9E700BFCD12400055
S2144013404C0A40207312400040230360704710232D
S21440135003607047436913F0020F04D0C1F30801DD
S214401360C1610020704701207047436913F0010FA8
S21440137005D08369C3F308030B6000207047012043
S2144013807047FEE700B583B0254B264A9A4210D0F8
S214401390254B234A9A420CD2013B9B1A23F0030367
S2144013A0043313441F4951F8040B42F8040B9A4285
S2144013B0F9D11E4B1E4A9A420AD2013B9B1A23F091
S2144013C0030304331344002142F8041B9342FBD129
S2144013D0184A194B23F07F039360EFF31083B3FA58
S2144013E083F35B09019372B6BFF35F8F0022134B02
S2144013F01A700199124A136843F470031360BFF3DE
S2144014004F8FBFF36F8F29B101220C4B1A70BFF379
S2144014105F8F62B60B4B98470B4B9847FEE700BF73
S2144014200000402018944000C00940204C0C40204A
S214401430C009402000ED00E00000400000004020D1
S21440144088ED00E0C55D4000D53C40003B4B1B6B43
S21440145003F00303012B1DD083B1022B36D0374B4C
S2144014601B6B03F07003702B5FD0344B1A6B344900
S214401470C2F302120B68D3400B607047314B5B6976
S21440148013F0800F14BF4FF400424FF4FA422C4B37
S2144014901A60E4E7294B1B6A13F0807F03D02A4A80
S2144014A0274B1A60DBE7294A254B1A60234B1B6AF9
S2144014B003F07003102B05D0202BD0D1224A204BAE
S2144014C01A60CCE7224A1E4B1A60C8E71B4B1B6AC1
S2144014D013F0807F16D01C4A194B1A60174B1B6BB3
S2144014E003F00303022BBAD1144A916A926A144855
S2144014F0C1F30A41036801FB0333D2B2B3FBF2F3F4
S2144015000360ACE7114A0E4B1A600C4B1B6A03F0A3
S2144015107003102B05D0202BE0D10B4A084B1A60E5
S214401520DCE70B4A064B1A60D8E7054A13680949B8
S214401530A1FB03135B081360704700BF00060E4014
S2144015400400402010180E40001BB70000093D0064
S21440155000127A00ABAAAAAA164B984213D9164B89
S214401560984215D9154B984216D9154B984217D91B
S214401570144B984218D9144B984294BF134A144AB5
S214401580144B1A6070474FF08062124B1A607047D7
S214401590114A104B1A607047104A0E4B1A6070473B
S2144015A00F4A0C4B1A6070474FF00422094B1A60E2
S2144015B0704700BFBFF35E017FE7BD023FDB1C0400
S2144015C0FFCE7B05BFC2DA067FB6390800050004A9
S2144015D000060004000C0E40000100040002000457
S2144015E0000300040A4B1B6853B1094B1B681A18CA
S2144015F00849914208DB1046054A10601846704775
S214401600054A034B1A60F0E74FF0FF30704700BFC3
S214401610500A4020FCFF4520502E40204FF0FF301F
S21440162070474FF400534B600020704701207047CE
S2144016300020704700F1080343604FF0FF3282609D
S214401640C360036100230360704700230361704753
S21440165043684B609A688A609A68516099600861EE
S214401660036801330360704730B40D68B5F1FF3F3F
S21440167002D000F1080202E0026904E01A4653680C
S2144016801C68A542FAD253684B6099608A605160E4
S214401690086103680133036030BC704703694268E1
S2144016A0816891608268416851605A68904206D06D
S2144016B0002202611A68013A1A6018687047826808
S2144016C05A60F5E782B0002301930F4B1B68B3F1D5
S2144016D0FF3F0AD04FF0800372B683F31188BFF302
S2144016E06F8FBFF34F8F62B6FEE74FF0800372B640
S2144016F083F31188BFF36F8FBFF34F8F62B6019BA2
S214401700002BFCD002B07047080040200848006814
S214401710006880F308884FF0000080F3148862B6B3
S21440172061B6BFF34F8FBFF36F8F00DF00BF00007F
S21440173008ED00E0DFF80C00016841F4700101603C
S2144017407047000088ED00E04FF0807340F8043C9E
S21440175021F0010140F8081C054B40F80C3C40F8CD
S214401760202C6FF0020340F8243C4438704700BFFA
S214401770C516400000000000000000000000000009
S214401780074B19680868B0E8F04F80F30988BFF344
S2144017906F8F4FF0000080F311887047AFF30080E2
S2144017A05C0A40204FF0800372B683F31188BFF383
S2144017B06F8FBFF34F8F62B60B4A136801331360C7
S2144017C0012B0FD1094B1B6813F0FF0F0AD04FF0C7
S2144017D0800372B683F31188BFF36F8FBFF34F8FCA
S2144017E062B6FEE7704700BF0800402004ED00E008
S2144017F00A4B1B6853B94FF0800372B683F31188C7
S214401800BFF36F8FBFF34F8F62B6FEE7013B034ACD
S21440181013600BB983F31188704700BF080040205F
S214401820EFF30980BFF36F8F154B1A681EF0100F49
S21440183008BF20ED108A20E9F04F10602DE909001E
S2144018404FF0800072B680F31188BFF34F8FBFF31E
S2144018506F8F62B601F07CF94FF0000080F311887C
S21440186009BC19680868B0E8F04F1EF0100F08BFB2
S214401870B0EC108A80F30988BFF36F8F704700BFC3
S2144018805C0A402008B54FF0800372B683F3118897
S214401890BFF36F8FBFF34F8F62B6054B984718B1B3
S2144018A04FF08052034B1A60002383F3118808BD23
S2144018B09528400004ED00E0054B00221A600549DB
S2144018C00A600549054A116007221A60704700BF42
S2144018D010E000E018E000E0BF27090014E000E058
S2144018E010B582B02E4B1A78D2B20192FF221A70EF
S2144018F01B78DBB28DF803309DF8033003F080038D
S214401900284A13700722284B1A609DF8033013F0BC
S214401910800F12D0062300E00B469DF803205200AD
S214401920D2B28DF803209DF80320591E12F0800F86
S214401930F2D11D4A1360042B0AD04FF0800372B6D2
S21440194083F31188BFF36F8FBFF34F8F62B6FEE706
S2144019501B0203F4E063144A1360019BDBB2104A97
S2144019601370124B1A6842F460021A601A6842F00A
S21440197060421A600E4B984700240E4B1C600E4B7C
S21440198098470E4A136843F0404313600C4B984701
S2144019900C4B98470C4B9847204602B010BD00BFF2
S2144019A000E400E0540A4020580A402020ED00E0C1
S2144019B0B9184000080040203517400034EF00E0DA
S2144019C00D174000512B4000C5164000EFF305832D
S2144019D00F2B11D9124A9B5CDBB2124A12789A42FC
S2144019E00AD94FF0800372B683F31188BFF36F8F26
S2144019F0BFF34F8F62B6FEE70B4B1B6803F4E06302
S214401A000A4A126893420AD94FF0800372B683F3AB
S214401A101188BFF36F8FBFF34F8F62B6FEE77047F4
S214401A20F0E300E0540A40200CED00E0580A402065
S214401A3010B50446064B98472046064B9847044642
S214401A40054B98470CB1204610BD044B9847FAE723
S214401A50792840003D5E4000DD2940005D3740006B
S214401A6048B110B50446044B98472046034B984768
S214401A70034B984710BD7047792840004D5E4000A4
S214401A80DD29400010B50446044B9847A46B044B30
S214401A909847B4FA84F0400910BD00BFA51740002F
S214401AA0F117400070B504461646856B026C52B975
S214401AB00368002B2AD14068174B98470023636081
S214401AC00135A56370BD6EB98068144B9847A3680E
S214401AD0226C1344A3606268934219D32368A360C0
S214401AE00020EDE7C0680D4B9847236C5B42E268E8
S214401AF01A44E26021688A4202D262681344E36074
S214401B0045B1022E06D1013D0020D9E70020D7E797
S214401B100020D5E70020D3E7D52E4000BD63400027
S214401B2070B582B00190846C74B1A26BE36B9A423C
S214401B3015D34FF0800372B683F31188BFF36F8FCF
S214401B40BFF34F8F62B6FEE74FF0800372B683F363
S214401B501188BFF36F8FBFF34F8F62B6FEE7A26B5D
S214401B60934203D80026304602B070BD0A4694F829
S214401B7045506DB201A920460A4B98470646B5F136
S214401B80FF3F0AD1636A002BEDD004F12400064BD8
S214401B909847002818BF0126E5E76B1C5BB284F81F
S214401BA04530E0E7A51A4000A52C4000026C72B113
S214401BB010B50346C4681444C4604068844201D3E8
S214401BC01868D8600846D968014B984710BD7047DA
S214401BD0BD6340002DE9F0410546234B984795F8F4
S214401BE0454064B2002C19DD204EDFF88C80204F33
S214401BF008E06B6A93B105F12400B84760B9013C30
S214401C0064B25CB1AB6C002BF3D000212846B047E1
S214401C100028F4D0C047F2E7C047F0E7FF2385F836
S214401C204530144B9847104B984795F8444064B25B
S214401C30002C12DD2B6983B105F110070C4EDFF83E
S214401C40388004E0013C64B23CB12B692BB1384685
S214401C50B0470028F6D0C047F4E7FF2385F8443065
S214401C60044B9847BDE8F081A5174000211B400073
S214401C70A52C4000F1174000E92D400038B530B3A0
S214401C8004460D461D4B98472268216CE36B03FBC8
S214401C9001F3D01860600020A063A2605B1A134472
S214401CA0E360FF2384F8443084F84530D5B923698F
S214401CB0FBB104F11000124B9847D0B14FF0805260
S214401CC0104B1A60BFF34F8FBFF36F8F11E04FF08A
S214401CD0800372B683F31188BFF36F8FBFF34F8FC5
S214401CE062B6FEE704F11000074DA84704F1240051
S214401CF0A847064B9847012038BD00BFA5174000AF
S214401D00A52C400004ED00E035164000F1174000D9
S214401D10F8B550B94FF0800372B683F31188BFF31D
S214401D206F8FBFF34F8F62B6FEE7064617460D46E7
S214401D3001FB00F054300B4B9847044678B11DB178
S214401D4000F15403036000E02060E663256401214F
S214401D502046054B984784F850700023A3642046DD
S214401D60F8BD00BF311A40007D1C40002DE9F04F01
S214401D7085B00192B8B1044601B3022B2CD01E4662
S214401D800F46694B9847002834D1019B002B39D029
S214401D904FF0800372B683F31188BFF36F8FBFF3A3
S214401DA04F8F62B6FEE74FF0800372B683F311881A
S214401DB0BFF36F8FBFF34F8F62B6FEE7026C002A09
S214401DC0DBD04FF0800372B683F31188BFF36F8F7A
S214401DD0BFF34F8F62B6FEE7E26B012ACFD04FF0DB
S214401DE0800372B683F31188BFF36F8FBFF34F8FB4
S214401DF062B6FEE70025DFF85C81DFF85CA1DFF81D
S214401E00349141E00025F6E7324639462046474BB6
S214401E109847A36C93B131462046454B984738B116
S214401E204FF08052434B1A60BFF34F8FBFF36F8F14
S214401E30414B9847012005B0BDE8F08F636A73B107
S214401E4004F124003D4B98470028F1D04FF08052D3
S214401E50384B1A60BFF34F8FBFF36F8FE8E7002809
S214401E60E6D04FF08052334B1A60BFF34F8FBFF32C
S214401E706F8FDDE7304B98470020DCE72046304B3D
S214401E809847304B98470125C047A26BE36B9A4270
S214401E90BAD3022EB8D0019B002BEBD00DB902A8C6
S214401EA0D047254B9847284B9847C04794F844302E
S214401EB05BB2B3F1FF3F02D1002384F8443094F87C
S214401EC045305BB2B3F1FF3F02D1002384F8453082
S214401ED0194B984701A902A81C4B9847E0B9C04740
S214401EE0D4F838B0E56B144B9847AB45C6D101994A
S214401EF004F11000164B98472046114B9847114B5B
S214401F0098470028BFD14FF08053C9F80030BFF340
S214401F104F8FBFF36F8FB6E72046094B9847094B64
S214401F209847002087E700BFF52D4000A51A4000DF
S214401F30211B400004ED00E0F1174000A52C4000B6
S214401F40D51B4000DD29400079284000552D400033
S214401F50212C4000A51740003D2D40002DE9F843B8
S214401F60002839D00446002941D0022B4DD01F46C8
S214401F70904689463A4B9847EFF311864FF08003D8
S214401F8072B683F31188BFF36F8FBFF34F8F62B67D
S214401F90A26BE36B9A4201D3022F58D194F8455076
S214401FA06DB23A46494620462E4B9847B5F1FF3F1C
S214401FB047D1A36C002B36D0394620462A4B98474B
S214401FC0B8F1000F45D0002843D00120C8F80000E3
S214401FD086F31188BDE8F8834FF0800372B683F32A
S214401FE01188BFF36F8FBFF34F8F62B6FEE7006C6A
S214401FF00028BAD04FF0800372B683F31188BFF33F
S2144020006F8FBFF34F8F62B6FEE7E06B0128AED00E
S2144020104FF0800372B683F31188BFF36F8FBFF320
S2144020204F8F62B6FEE7636AABB104F124000F4BF4
S2144020309847B8F1000F10D078B10120C8F80000DA
S214402040C6E76B1C5BB284F845300120C0E7002031
S214402050BEE70120BCE70120BAE70120B8E700BF91
S214402060CD194000A51A4000211B4000A52C400079
S2144020702DE9F04784B0019290B10446D9B10E469E
S214402080544B984728BB019B5BB34FF0800372B616
S21440209083F31188BFF36F8FBFF34F8F62B6FEE7AF
S2144020A04FF0800372B683F31188BFF36F8FBFF390
S2144020B04F8F62B6FEE7036C002BE0D04FF08003F4
S2144020C072B683F31188BFF36F8FBFF34F8F62B63C
S2144020D0FEE70027DFF82881DFF828A1DFF8009127
S2144020E031E00027F6E7314620463B4B9847013D16
S2144020F0A563236963B104F11000384B984738B1A3
S2144021004FF08052364B1A60BFF34F8FBFF36F8F3E
S214402110344B9847012004B0BDE8F087314B9847D0
S2144021200020F8E702A8D04716E0002384F84430A1
S2144021301DE0002384F845301FE020462A4B984790
S2144021402A4B98470127C047A56B002DCBD1019B52
S214402150002BE3D0002FE5D0224B9847244B9847DE
S214402160C04794F844305BB2B3F1FF3FDDD094F8FB
S21440217045305BB2B3F1FF3FDBD01A4B984701A91D
S21440218002A81C4B9847C8B920461B4B98470028C6
S214402190D3D0019904F12400184B98472046124B9F
S2144021A09847124B98470028CCD14FF08053C9F837
S2144021B00030BFF34F8FBFF36F8FC3E720460A4B05
S2144021C098470A4B984720460B4B98470028B9D06B
S2144021D00020A0E7F52D4000AD1B4000A52C400098
S2144021E004ED00E0F1174000D51B4000DD2940001B
S2144021F079284000552D4000851A4000212C40008B
S214402200A51740003D2D40002DE9F04385B00191D3
S21440221068B10446036CABB14FF0800372B683F3EB
S2144022201188BFF36F8FBFF34F8F62B6FEE74FF054
S214402230800372B683F31188BFF36F8FBFF34F8F5F
S21440224062B6FEE75E4B984760B9019B93B14FF08C
S214402250800372B683F31188BFF36F8FBFF34F8F3F
S21440226062B6FEE700252F46564EDFF88C91DFF823
S214402270608152E000252F46F6E7013BA3632368C2
S21440228013B9514B98476060236963B104F110005D
S2144022904E4B984738B14FF080524D4B1A60BFF3C3
S2144022A04F8FBFF36F8F4B4B98470125284605B09D
S2144022B0BDE8F08355B14FF0800372B683F31188C2
S2144022C0BFF36F8FBFF34F8F62B6FEE7414B984721
S2144022D0ECE702A8C84729E0002384F8443030E001
S2144022E0002384F8453032E0B04760683A4B984760
S2144022F00546384B98473AE02046384B9847384B87
S214402300984709E02046354B9847354B9847204636
S214402310344B984700283FD10127B047A36B002B8A
S214402320ABD1019B002BC5D0002FD2D0294B98476C
S2144023302D4B9847B04794F844305BB2B3F1FF3F1B
S214402340CAD094F845305BB2B3F1FF3FC8D0214BBA
S214402350984701A902A8254B98470028D2D1204685
S214402360204B98470028C7D02368002BBCD0019943
S21440237004F124001E4B98472046184B9847184BAC
S21440238098470028C8D14FF08053C8F80030BFF3B4
S2144023904F8FBFF36F8FBFE7002D87D0094B98470D
S2144023A0636A53B1236B1968C1F105016068114B2C
S2144023B09847084B9847002578E70021F6E700BF86
S2144023C0F52D4000A51740005D304000A52C40008C
S2144023D004ED00E0F1174000152E4000D51B4000EC
S2144023E0DD294000851A400079284000552D4000E0
S2144023F0212C4000912F40003D2D400010B40B4B47
S2144024001B6853B10123094C54F8332032B10133D1
S214402410082BF9D15DF8044B70470023034A42F875
S214402420331002EBC3035860F4E700BFDC0B4020D8
S21440243070B504460D461646124B984794F84430FD
S2144024405BB2B3F1FF3F0DD094F845305BB2B3F1C9
S214402450FF3F0BD00C4B9847A36B5BB120460B4B12
S214402460984770BD002384F84430EDE7002384F895
S2144024704530EFE73246294604F12400044B98479E
S214402480ECE700BFA5174000F1174000D51B400001
S2144024905D2C4000084B1B681B683BB1064B1B6815
S2144024A0DB68DB685A68054B1A6070474FF0FF32AE
S2144024B0024B1A60704700BF600A4020100B402055
S2144024C070B504460E461C4B1D681C4B18680430FD
S2144024D01B4B984748B9194B1A681A490B68D06A7B
S2144024E00122824023EA02030B60B4F1FF3F00D191
S2144024F09EB92C44114B1B685C60A54214D8124B05
S21440250018680E4B19680431104B9847104B1B68DF
S2144025109C4201D20E4B1C6070BD084B19680431BA
S2144025200C480D4B984770BD0C4B1868034B196808
S2144025300431064B984770BD580B40205C0A40203B
S2144025409D164000E00A4020600A40206916400080
S214402550100B4020300B402051164000640A4020AB
S21440256080B5184DDFF87880DFF8789001E0164B9C
S21440257098472B68C3B1154F154EC047FB68DC68BB
S214402580201DB047134A1368013B13602B68013B7C
S2144025902B60114B9847206BDFF84CA0D047204665
S2144025A0D0472B68002BE8D10C4B1B68012BDED99B
S2144025B04FF08053C9F80030BFF34F8FBFF36F8F93
S2144025C0D5E700BFD00A402059374000440B402092
S2144025D09D164000CC0A4020F1174000680A402073
S2144025E0A517400004ED00E0611A40002DE9F04FC9
S2144025F083B083460D460193DDF834A096003046FE
S214402600604B9847002800F08D80074658205D4B69
S21440261098470446002800F0828007633246A5218A
S2144026203846594B9847043E236B1E4426F007060F
S2144026302B7884F834302B7863B12B4604F134027F
S21440264005F10901587802F8010F13F8010F08B197
S2144026508B42F7D1002784F83D700C9D042D28BF8F
S2144026600425E562A564E76404F104084046DFF803
S2144026706C91C84704F11800C8472461C5F10505A8
S214402680A5616462276584F85470019A59463046BD
S2144026903E4B98472060BAF1000F01D0CAF8004080
S2144026A03B4B98473B4A1368013313603A4B1B68D1
S2144026B0002B3AD0394B1B683BB9374B1B68DA6A5C
S2144026C0E36A9A4201D8344B1C60354A136801339A
S2144026D013602364E06A334A1168012383400B4346
S2144026E0136000EB800041462F4B03EB80002F4BDE
S2144026F098472F4B9847294B1B68002B3BD0264BBF
S2144027001B68DA6AE36A9A4239D24FF08052294B04
S2144027101A60BFF34F8FBFF36F8F01202CE038460F
S214402720254B98474FF0FF3026E01B4B1C60136844
S214402730012BCAD11C4E3046204DA84706F1140046
S214402740A84706F12800A84706F13C00A84706F12E
S2144027505000A8471A4F3846A8471A4E3046A84752
S2144027601948A8471948A8471948A847194B1F6051
S214402770194B1E60A9E7012003B0BDE8F08F012089
S214402780FAE700BF311A4000F164400049174000A4
S214402790A5174000CC0A40205C0A40202C0B402065
S2144027A0DC0A4020E00A4020680A402051164000DB
S2144027B0F117400004ED00E0611A40003516400075
S2144027C0E40A4020F80A4020180B4020440B4020E2
S2144027D0300B4020600A4020640A40204B164000E0
S2144027E010B582B01B4B0193002300934FF4006258
S2144027F019491A481A4CA047012804D0B0F1FF3FA7
S2144028001CD002B010BD174B98470128F6D14FF0A8
S214402810800372B683F31188BFF36F8FBFF34F8F79
S21440282062B64FF0FF32104B1A6001220F4B1A600F
S21440283000220F4B1A600F4B9847E2E74FF0800399
S21440284072B683F31188BFF36F8FBFF34F8F62B6B4
S214402850FEE700BF0C0B4020688D4000612540001D
S214402860ED25400035314000100B40202C0B402019
S214402870580B4020E1184000024A136801331360A9
S214402880704700BFD80A4020014B1868704700BF09
S214402890580B40202DE9F047414B1B68002B77D161
S2144028A0404B1D6801351D60D5B93F4B1B681B6802
S2144028B053B14FF0800372B683F31188BFF36F8F26
S2144028C0BFF34F8F62B6FEE7374A1168374B18683A
S2144028D010601960364A136801331360354B9847C9
S2144028E0354B1B689D4218D20024344B1B68DB6A6C
S2144028F003EB83039B00324AD358022B28BF0124A4
S214402900304B1B680BB9304B9847304B1B68002B3D
S2144029100CBF20460120BDE8F0870024DFF88890F1
S214402920DFF8B4802A4F1FE04FF0FF32224B1A6088
S214402930DBE7214A1360D8E706F11800C047F06A83
S2144029403A680123834013433B6000EB80005146C6
S2144029501B4B03EB80001F4B9847184B1B68F26AD3
S214402960DB6A9A4228BF0124D9F800301B68002B46
S214402970DAD0D9F80030DB68DE6873689D42D8D379
S21440298006F1040A5046C047B36A002BD4D1D6E7B6
S2144029900C4A1368013313600B4B98470024B4E786
S2144029A0D80A4020580B4020600A4020640A402045
S2144029B0140B402095244000100B40205C0A402019
S2144029C0680A4020D40A40205B3740005C0B402019
S2144029D0E00A4020511640009D164000364B1B68CA
S2144029E053B94FF0800372B683F31188BFF36F8FED
S2144029F0BFF34F8F62B6FEE72DE9F0412F4B984765
S214402A002D4B1A68013A1A601B68002B50D12C4B8C
S214402A101B682BB900242B4B98472046BDE8F08115
S214402A200024294F294E2A4D3B6803B3FB68DC68D7
S214402A3004F11800B04704F104084046B047E06A85
S214402A402A680123834013432B6000EB80004146F5
S214402A50204B03EB8000204B9847204B1B68E26AD4
S214402A60DB6A9A42E0D301221D4B1A60DCE70CB1C8
S214402A701C4B98471C4B1C686CB11C4F184E0125CC
S214402A8001E0013C04D0B8470028FAD03560F8E7AA
S214402A900022154B1A60124B1B685BB14FF08052F8
S214402AA0134B1A60BFF34F8FBFF36F8F0124B2E70B
S214402AB00024B0E70024AEE7D80A4020A51740001F
S214402AC0CC0A4020F1174000180B40209D164000CD
S214402AD0E00A4020680A4020511640005C0A402028
S214402AE05C0B402095244000D40A402095284000A6
S214402AF004ED00E010B5B8B10446104B1B6853B166
S214402B004FF0800372B683F31188BFF36F8FBFF325
S214402B104F8F62B6FEE70A4B984700212046094B86
S214402B209847094B984738B94FF08052074B1A6080
S214402B30BFF34F8FBFF36F8F10BD00BFD80A402042
S214402B4079284000C1244000DD29400004ED00E023
S214402B502D4B1B68002B2CD110B500222B4B1A6036
S214402B602B4B1B681B6B1A68B2F1A53F03D15A6802
S214402B70B2F1A53F21D0264B186819683431254B51
S214402B809847254B1B68B3FA83F3DBB2C3F11F03A8
S214402B9003EB8302920021498A58BAB94FF080036A
S214402BA072B683F31188BFF36F8FBFF34F8F62B651
S214402BB0FEE70122154B1A6070479A68B2F1A53FAE
S214402BC0D9D1DB68B3F1A53FD5D1DAE7134A9900EE
S214402BD0C81802EB800044686468446019440246A2
S214402BE00832944209D003EB83030C4A02EB83037A
S214402BF05B68DA68064B1A6010BD6068074A02EBED
S214402C0081025060EFE700BFD80A40205C0B4020AE
S214402C105C0A402041374000E00A4020680A4020D5
S214402C2050B94FF0800372B683F31188BFF36F8FAD
S214402C30BFF34F8F62B6FEE710B50C46044B1968DB
S214402C401831044B984701212046034B984710BD46
S214402C505C0A402069164000C124400038B578B16F
S214402C6014460D460C4B196818310C4B9847002CEF
S214402C7021460CBF28464FF0FF30094B984738BDD9
S214402C804FF0800372B683F31188BFF36F8FBFF3A4
S214402C904F8F62B6FEE700BF5C0A402051164000E8
S214402CA0C124400038B5C368DC6824B304F1180575
S214402CB028461A4B98471A4B1B683BBB251D28468F
S214402CC0164B9847E06A174A1168012383400B4326
S214402CD0136000EB80002946134B03EB8000134B38
S214402CE09847134B1B68E26ADB6A9A4213D9012065
S214402CF0104B186038BD4FF0800372B683F31188CE
S214402D00BFF36F8FBFF34F8F62B6FEE729460A4880
S214402D10064B9847E5E7002038BD00BF9D164000AB
S214402D20D80A4020E00A4020680A40205116400059
S214402D305C0A40205C0B4020180B4020034B1B686D
S214402D400360034B1B684360704700BF140B402072
S214402D50580B4020A8B170B50546E9B10C461D4B4E
S214402D6098471D4B1A6869682368B3F1FF3F2FD018
S214402D701A4800682E68864219D08A4217D3012422
S214402D801BE04FF0800372B683F31188BFF36F8F5A
S214402D90BFF34F8F62B6FEE74FF0800372B683F301
S214402DA01188BFF36F8FBFF34F8F62B6FEE7521A9C
S214402DB09A4206D3002323600124094B98472046B5
S214402DC070BD9B1A23602846064B98470024F4E7BC
S214402DD00024F2E7A5174000580B4020140B402073
S214402DE0F11740003D2D40000122014B1A6070470C
S214402DF05C0B4020054B1B6833B1054B1B68002B12
S214402E000CBF022000207047012070472C0B40204A
S214402E10D80A4020002850D038B50446C26A28490F
S214402E200968C96A8A423FD28169002905DB24497C
S214402E300968C96AC1F10501816102EB8202214934
S214402E4001EB82026169914205D01D4A1268D26A3E
S214402E50E262012038BD251D28461B4B984770B9B5
S214402E60E26A02EB82039B001649CB583BB91748EF
S214402E700368012101FA02F223EA02020260104BC3
S214402E801B68D86AE062114A1168012404FA00F30C
S214402E900B43136000EB800029460A4B03EB80008F
S214402EA00B4B9847204638BD054A1268806CD36A5B
S214402EB098422CBF0020012038BD0020704700BF3C
S214402EC05C0A4020680A40209D164000E00A4020E8
S214402ED05116400000284DD038B50446274A12689F
S214402EE090420AD04FF0800372B683F31188BFF346
S214402EF06F8FBFF34F8F62B6FEE7C26C52B94FF08A
S214402F00800372B683F31188BFF36F8FBFF34F8F82
S214402F1062B6FEE7013AC264C06AA16C88422BD012
S214402F2052BB251D2846164B984768B9E16A01EB07
S214402F3081039B00134AD35833B9134803680122D0
S214402F408A4023EA02030360A06CE062C0F10503F6
S214402F50A3610D4A1168012404FA00F30B43136081
S214402F6000EB80002946074B03EB8000074B984751
S214402F70204638BD00207047002038BD5C0A4020FF
S214402F809D164000680A4020E00A40205116400046
S214402F90002858D038B50446C06C50B94FF080036E
S214402FA072B683F31188BFF36F8FBFF34F8F62B64D
S214402FB0FEE7A26C8A4238BF0A46E16A012841D140
S214402FC091423FD02048006884420AD14FF08003A7
S214402FD072B683F31188BFF36F8FBFF34F8F62B61D
S214402FE0FEE7E262A069002802DBC2F10502A261A8
S214402FF001EB8101154A02EB810162698A4221D1C7
S214403000251D2846124B984768B9E16A01EB8103B3
S2144030109B000E4AD35833B90E48036801228A40B3
S21440302023EA02030360E06A0A4A116801238340E8
S2144030300B43136000EB80002946044B03EB8000F3
S214403040054B984738BD70475C0A4020680A4020C8
S2144030509D164000E00A402051164000054B1B6874
S21440306023B1044B1A68D36C0133D364014B186800
S214403070704700BF5C0A402008B54160006191423D
S2144030800CD8D21A83699A4201D3012008BD011D8B
S214403090094B1868094B9847002008BD9A4203D24E
S2144030A0994201D3012008BD011D054B1868034B0A
S2144030B09847002008BD00BF640B402069164000BA
S2144030C0600B402070B5104B9847104B1B6813B1EF
S2144030D00F4B984770BD0F4D28460F4EB0470F4CCC
S2144030E02046B0470E4B1D600E4B1C600022102140
S2144030F005200D4B9847054B18600028E8D00B4933
S2144031000B4B9847E4E700BFA5174000940B4020C0
S214403110F1174000680B4020351640007C0B4020DD
S214403120600B4020640B4020111D4000708D400015
S214403130FD23400010B582B00E4B98470E4B1B68DF
S2144031406BB10E4B01930423009300234FF480523F
S2144031500B490C480C4CA04708B102B010BD4FF0CC
S214403160800372B683F31188BFF36F8FBFF34F8F20
S21440317062B6FEE7C5304000940B4020980B4020D6
S214403180788D4000B5324000ED254000D8B130B5CE
S21440319085B015460446154A106820B31A46009175
S2144031A001950294052919DC114B984702284FF0E7
S2144031B000030CBF089A1A4669460C4800680D4C36
S2144031C0A04705B030BD4FF0800372B683F3118838
S2144031D0BFF36F8FBFF34F8F62B6FEE7002369469B
S2144031E0054CA047EDE70020EBE700BF940B4020DE
S2144031F0F52D40006D1D40005D1F40002DE9F04755
S21440320082B08046244B98470746244B1B6898421A
S2144032101BD30023C8F80030204B1F60384602B04E
S214403220BDE8F087002100910B46524620461C4CD4
S214403230A04760B94FF0800372B683F31188BFF39E
S2144032406F8FBFF34F8F62B6FEE7164D164E2B6854
S2144032501A68C2B1DB68D3F800A0DC6804F1040940
S2144032604846B047636A20469847E369012BEED14B
S214403270A36953449A45D5D2636024614946286879
S2144032800A4B9847E3E70A4A106806490860136005
S2144032900123C8F80030BFE789284000900B402043
S2144032A08D314000600B40209D164000691640005E
S2144032B0640B40202DE9F04788B0754E754FDFF817
S2144032C0FC91DFF8FC8133681A68002A00F0CE8053
S2144032D0DB681C68B84704A86F4B98470546049BB4
S2144032E0002B44D1A04212D20022611B6B4B1868BF
S2144032F06B4B98476B4B984700283AD14FF080531A
S214403300C9F80030BFF34F8FBFF36F8F31E0654B86
S21440331098473368DB68D3F80CA00AF10400C0472E
S214403320DAF81C30012B04D0DAF82430504698479F
S2144033301FE0DAF8181023462A46214450465A4DD4
S214403340A8470028F0D0002100910B462246504660
S214403350564CA0470028E7D14FF0800372B683F35F
S2144033601188BFF36F8FBFF34F8F62B6FEE74D4BAA
S21440337098474A4D4E4C06E007990698059B984755
S214403380049B002B08DA002204A92868A0470028DE
S21440339099D0049B002BEFDBDDF818A0DAF8143048
S2144033A013B10AF10400C04703A83B4B9847049B5F
S2144033B0092BE8D801A252F823F000BFE5334000BD
S2144033C0E5334000E5334000873340003934400061
S2144033D065344000E5334000E53340008733400025
S2144033E039344000059CDAF818102346024621443A
S2144033F050462D4CA0470028BCD0DAF82430504622
S2144034009847DAF81C30012BB4D1DAF8182000219E
S21440341000910B46059802445046244CA04700288D
S214403420A8D14FF0800372B683F31188BFF36F8F35
S214403430BFF34F8F62B6FEE70599CAF8181031B150
S2144034400346024601445046174CA04792E74FF0C9
S214403450800372B683F31188BFF36F8FBFF34F8F2D
S21440346062B6FEE75046134B984783E7B84704A832
S214403470094B98470546049B002B7FF478AF0E4BCC
S2144034801B681A68B2FA82F2520900242DE700BF80
S214403490600B402079284000FD314000940B4020CE
S2144034A031244000DD294000793040008D31400015
S2144034B071204000611A4000640B402004ED00E09B
S2144034C09D164000F0B583B005460C460023019398
S2144034D02A4B984213D02A4B984218D0294B9842F0
S2144034E01DD0294B9D4222D0284B9D4227D0284BA9
S2144034F09D422ED0274B9D4235D003B0F0BD1F468F
S214403500254E21463846B0470028FAD1E9E71F46FF
S214403510214E21463846B0470028FAD1E4E71F46F8
S2144035201D4E21463846B0470028FAD1DFE71F46F1
S214403530194E21463846B0470028FAD1DAE71E46EB
S214403540164D01A93046A8470028FAD1019B2370A2
S214403550D3E71E46114D01A93046A8470028FAD1A8
S214403560019B2370C9E71E460C4D01A93046A8476B
S2144035700028FAD1019B2370BFE700BF00080E4029
S214403580000A0E40001A0E40001C0E40004002404A
S2144035900080024000C002405F1240006B134000B3
S2144035A070B50C462A4B984213D02A4B984219D0F5
S2144035B0294B98421FD0294B984225D0284B9842F9
S2144035C02BD0284B984231D0274B984237D00020FA
S2144035D070BD1E46254D21463046A8470028FAD1E4
S2144035E0012070BD1E46214D21463046A847002882
S2144035F0FAD1012070BD1E461C4D21463046A847D4
S2144036000028FAD1012070BD1E46184D214630468E
S214403610A8470028FAD1012070BD1E46144D214609
S2144036203046A8470028FAD1012070BD1E46104DEE
S21440363021463046A8470028FAD1012070BD1E46D4
S2144036400B4D21463046A8470028FAD1012070BDD0
S21440365000080E40000A0E40001A0E40001C0E40A5
S214403660004002400080024000C002404D12400030
S2144036705513400080B582B01B4D1C4F1C4E18E0C1
S214403680012130461B4CA0474FF080413846A047AA
S21440369004211948194B98470BE001213046154C38
S2144036A0A04704211448A0474FF080413846134BAA
S2144036B09847134C00220DF107012868A0470028C0
S2144036C0F8D09DF80730022BDAD0012BE5D04FF02A
S2144036D080413846074CA04704210748A0470121AF
S2144036E03046064B9847E4E71C0C402000120E403C
S2144036F0000E0E402D0D400000100E40310D4000D3
S2144037007120400008B5094D094C0A4E03E04FF4BD
S2144037107A70094B98474FF0FF312868A047012838
S214403720F5D13046054B9847F1E700BF200C4020C6
S21440373009224000F88D4000F52A4000155E400002
S21440374008B50A4601460248024B9847FEE700BFC6
S214403750748E4000155E4000704770474FF08003FF
S21440376072B683F31188BFF36F8FBFF34F8F62B685
S214403770FEE7000030B585B029200E4CA0470E4B22
S214403780019349F64043029301A90C480C4B9847D5
S2144037901020A0470B4D4FF080524FF0C0512846A6
S2144037A0094CA0474FF000624FF0C0512846A04752
S2144037B005B030BDCD0F400000A3E111000006402B
S2144037C09D10400000140E40350D400000B587B0F7
S2144037D08DF814008DF80410012102910392049391
S2144037E001A90348034B984740B207B05DF804FB75
S2144037F0000006407F11400000B587B08DF81400E9
S2144038008DF80410012102910392049301A9034804
S214403810034B984740B207B05DF804FB00000640F3
S214403820D11040002DE9F0412DED088BB2B0384B59
S214403830984768213748384B9847C0B2002837D059
S2144038403648374B984701232BAA75216820354CBC
S214403850A047002830D03448314B9847012332AA3D
S21440386002F8283D6B216820304CA04758BB32AA4E
S214403870002302F8283D01231C2168202B4CA0473A
S21440388028BB32AA002302F8283D01231B216820CA
S214403890264CA047F8B90FA8254B98470124682620
S2144038A0DFED249A9FED249ADFF8A880234F69E045
S2144038B023481B4B9847C6E79DF8AC207521214806
S2144038C0174B9847CAE72048154B9847CFE71E48FE
S2144038D0134B9847D5E71C48114B9847DBE7002326
S2144038E01A46194619480068C047F1E0F4EE477A90
S2144038F0F1EE10FA07DCBFEE007AF4EE477AF1EE0E
S21440390010FA40F1358117EE900A114B98472FE197
S214403910753740000000064021124000008E4000EF
S214403920155E4000F9374000308E4000CD374000ED
S214403930DD02400000008038000003433D3F400069
S214403940188E4000488E40005C8E4000200C402080
S2144039509D3E40006D1D4000B3EE0E7AF4EEC77AF1
S214403960F1EE10FA40F125818DF81F4032AA42F858
S214403970A84D00230DF11F0190480068C04720461F
S2144039808F4B984723460DF113023B2130468D4D11
S214403990A84723460DF116023C213046A847234649
S2144039A005AA3D213046A84723460DF1170240217F
S2144039B03046A84723460DF115023F213046A8471A
S2144039C0234606AA40213046A8479DF813209DF876
S2144039D0163043EA02231BB20AEE103A9DF8142032
S2144039E09DF8173043EA02231BB208EE903A9DF842
S2144039F015209DF8183043EA02231BB208EE103A11
S214403A0023460DF1190243213046A847234607AA0C
S214403A1044213046A84723460DF11A024521304638
S214403A20A84723460DF11D0248213046A8472346A5
S214403A300DF11B0247213046A84723460DF11E02D2
S214403A4048213046A8479DF819E09DF81C109DF87F
S214403A501A509DF81D209DF81B009DF81E30B8EEAC
S214403A60CAAA2AEE29AAF8EEE88A68EEA98AB8EE2B
S214403A70C88A28EE298A41EA0E2109B207EE901A32
S214403A80F8EEE77AC7EE89BA42EA052212B207EEA6
S214403A90902AF8EEE77A87EE89BA43EA00231BB20B
S214403AA007EE903AF8EEE77AC7EE89AA6AEE0A7A07
S214403AB028EEA87A77EE877A28EE087A77EE877A25
S214403AC0B1EE047AF4EEC77AF1EE10FA3FF707AF9C
S214403AD0CDED09BA8DED0ABACDED0BAA8DED0CAA47
S214403AE0CDED0D8A8DED0E8A374B03930CAB93E8E4
S214403AF007008DE8070009AB0ECB0FA8334DA8474B
S214403B000FA92EA8324B9847DDED2E8A9DED2F8AC1
S214403B109DED30AADDED31AA6AEE0A7AB6EE00BA1D
S214403B203BEE67BA68EE086A28EE287A6AEE2A7A8A
S214403B307BEE666A16EE901A77EE277A17EE900AB4
S214403B40B8476AEE287A28EE2A7A77EEC77A77EE72
S214403B50A77ABFEE007AF4EEC77AF1EE10FA07D9EC
S214403B60B7EE007AF4EEC77AF1EE10FAFFF6BEAE84
S214403B702AEEAA7A68EEAA8A68EE0A7A3BEE477A76
S214403B8017EE101A78EEA77A17EE900AB847DFEDD0
S214403B90117A07EE100A67EE277ABBEE0E7AF4EE3D
S214403BA0C77AF1EE10FA7FF5D7AE02238DF81F30B4
S214403BB0DCE600238DF81F30D8E600BF1C0C402002
S214403BC0F52A4000F9374000CDCCCC3D15094000E1
S214403BD009034000E02E6542F0B589B0294B98476E
S214403BE0294B9847294E2A4B1E602A4A2A4B1A6070
S214403BF02A4A2B4B1A604FF4E1330293C0230393B7
S214403C004FF4006304930024059406940E20254D3B
S214403C10A847254A02A93046244B98473046244BAD
S214403C2098473046234B9847234F3B682146986831
S214403C30224EB0473B6821465868B0473B6821460D
S214403C409868B0474FF400421D4B5A600A20A84778
S214403C500C20A8470B20A847009423462246012163
S214403C601848194DA8470094234622464FF08041F5
S214403C701648A84700942346224604211448A847DD
S214403C8009B0F0BD990B40009D0A400000800240FC
S214403C90D80B4020A1354000D40B4020C53440000E
S214403CA0D00B4020CD0F400080D1F008F5124000E8
S214403CB0491340004F13400010004020C9654000A3
S214403CC050180E40000E0E40C70D400000120E4029
S214403CD000100E4000B583B0234B98470023019355
S214403CE000934FF4C06221492148224CA047012846
S214403CF002D02148214B9847002204212020204B07
S214403D009847204B186030B30023019300934FF43C
S214403D10C0621D491D48174CA047012802D01648CE
S214403D20164B98470023019300934FF4C0621849FE
S214403D301848104CA047012802D00F480F4B984710
S214403D400322002101200E4B9847134B186030B1D8
S214403D50124B9847FEE71248084B9847D4E711485D
S214403D60064B9847F4E700BFD93B4000808D4000A3
S214403D7025384000ED254000888D4000155E400007
S214403D80111D40001C0C4020C08D400005374000EF
S214403D90CC8D400075364000200C4020E127400086
S214403DA0A48D4000D88D400000B51C4A20F000434A
S214403DB0934283B018DDB3F1FF4F05DB014601F0B7
S214403DC0EFFC03B05DF804FB694600F095FA00F09E
S214403DD00302012A15D0022A0CD0CAB10122019949
S214403DE0009801F095F8ECE7002100F047FC03B09E
S214403DF05DF804FB0199009800F040FC00F100409B
S214403E00DFE70199009801F083F800F10040D8E719
S214403E100199009800F032FCD3E700BFD80F493F25
S214403E2000B51D4A20F00043934283B019DDB3F13C
S214403E30FF4F05DB014601F0B3FC03B05DF804FB21
S214403E40694600F059FA00F00300012818D002280D
S214403E500ED0D0B10199009800F010FC00F100405F
S214403E60EBE70022002101F053F803B05DF804FBB5
S214403E7001220199009801F04BF800F10040DCE780
S214403E800199009800F0FAFBD7E7012201990098C3
S214403E9001F03EF8D1E700BFD80F493FF0B5244EB9
S214403EA08BB0044600F04CF896F9003001330546D6
S214403EB02FD02146204601F043FF074648BB204608
S214403EC001F0BAF94FF07E5101F030FF08B3194BBC
S214403ED00897012220468DE80C0001F0B9FB024607
S214403EE00B461548CDE90423CDE9022301F088F8B6
S214403EF096F90030022BCDE906010DD0684601F058
S214403F007DF848B1089B73B9DDE9060101F0F4FB82
S214403F10054628460BB0F0BD01F04EFF2123036056
S214403F20089B002BF0D001F047FF089B0360EBE7AF
S214403F300C0040208C8E40006C8D400000F04AB94A
S214403F402DE9F84320F00045B5F17E5F044600F0C9
S214403F50C68012DCB5F17C5F064616DAB5F1485FDE
S214403F6080F2CB808B4901F01DFC4FF07E5101F072
S214403F70DDFE50B12046BDE8F883014601F010FC56
S214403F80014601F0CBFDBDE8F883204601F054F928
S214403F9001464FF07E5001F003FC4FF07C5101F09B
S214403FA009FD7D49044601F005FD7C4901F0FAFB18
S214403FB0214601F0FFFC7A4901F0F2FB214601F070
S214403FC0F9FC784901F0EEFB214601F0F3FC764916
S214403FD001F0E6FB214601F0EDFC744901F0E2FBFE
S214403FE0214601F0E7FC72498046204601F0E2FC9B
S214403FF0704901F0D5FB214601F0DCFC6E4901F02A
S214404000D1FB214601F0D6FC6C4901F0C9FB2146A4
S21440401001F0D0FC4FF07E5101F0C4FB81462046B3
S21440402000F0D8FA664B9D4207464946404643DC78
S21440403001F074FD39468046384601F0B3FB014630
S214404040404601F0B7FC27F47F6525F00F05804613
S2144040502946284601F0AEFC0146204601F0A0FB6A
S21440406039460446284601F09DFB0146204601F0AD
S21440407055FD014601F096FB0146524801F090FB83
S2144040800146404601F08CFB29460446284601F08E
S21440409089FB01464C4801F083FB0146204601F06F
S2144040A07FFB0146484801F07BFB002E3FF763AF9D
S2144040B000F10040BDE8F88301F030FD394601F0DC
S2144040C079FC394601F06EFB014601F06BFB3F4937
S2144040D001F068FB01463E4801F062FBE5E73C49DB
S2144040E001F068FC37490546204601F063FC01466E
S2144040F0284601F057FBBDE8F883014601F05AFC1C
S2144041002549054601F056FC244901F04BFB29465B
S21440411001F050FC224901F043FB294601F04AFCDD
S214404120204901F03FFB294601F044FC1E4901F0BE
S21440413037FB294601F03EFC1C4901F033FB29467B
S21440414001F038FC1A490646284601F033FC194966
S21440415001F026FB294601F02DFC174901F022FB11
S214404160294601F027FC154901F01AFB294601F0C3
S21440417021FC4FF07E5101F015FB0146304601F020
S214404180CDFC214601F016FC214601F00BFBBDE8B4
S214404190F88300BFCAF2497108EF1138047F4F3ADE
S2144041A04611243DA80A4E3E90B0A63EABAA2A3EF3
S2144041B02EC69D3D6133303F2D57014039D11940C1
S2144041C09999793F2EBD3BB3DB0F493F2EBD3B331C
S2144041D0DB0FC93FF8B50C4621F00041B1F1FF4F67
S2144041E0034614DC20F00046B6F1FF4F07460EDCCF
S2144041F0B4F17E5F3DD0A51705F0020545EAD075BF
S21440420056B9022D30D0032D30D13248F8BD19466C
S214404210204601F0C7FAF8BD01B3B1F1FF4F2CD0EC
S214404220B6F1FF4F1AD0711AC9153C291ADC002C7A
S21440423039DB2146184601F071FC00F0FDFF00F026
S214404240E5FE012D2CD0022D22D0002D2FD0224964
S21440425001F0A8FA214901F0A3FAF8BD002F06DBC9
S2144042601F48F8BD1E48ECE71C48F8BDF8BD1D4881
S214404270F8BDBDE8F84000F0C9BEB6F1FF4F17D014
S214404280022DF1D0032DC0D0012D19D00020F8BD4D
S214404290114901F087FA0146104801F081FAF8BD4D
S2144042A000F10040F8BD3C31C3DA0020C9E7F8BD54
S2144042B0022D0CD0032D08D0012D04D00A48F8BD9D
S2144042C04FF00040F8BD0948F8BD0948F8BD094818
S2144042D0F8BD00BFDB0F49C02EBDBB33DB0F4940E6
S2144042E0DB0FC93FDB0FC9BFDB0F493FDB0F49BFC1
S2144042F0E4CB16C0E4CB16402DE9F04FA84A20F098
S2144043000044944289B06EDDA64A944206460D4665
S2144043101CDC0028A44940F3FC8001F041FAA34B82
S21440432024F00F049C4206466CD0A14901F038FAAE
S21440433001462860304601F033FA9D4901F030FAD4
S21440434001276860384609B0BDE8F08F994A944224
S2144043506ADDB4F1FF4F4EDAE715863FA4EBC7544B
S214404360204601F003FD01F0D1FA034601462046FF
S214404370059301F015FA4FF0874101F01BFB80468C
S21440438001F0F4FC01F0C2FA0146044640460694A9
S21440439001F006FA4FF0874101F00CFB0021079030
S2144043A001F09CFC002800F0CB802046002101F064
S2144043B095FC002814BF012302237F4A0192022164
S2144043C03A46009105A8294600F01CFA002E0746FA
S2144043D00DDA95E80C0002F1004203F10043474233
S2144043E02A606B6003E0002208604A600027384677
S2144043F009B0BDE8F08F014601F0D2F900276860A9
S2144044002860F4E76D4901F0CBF96D49044601F0A8
S214404410C7F901462860204601F0C2F9684901F014
S214404420BFF901276860E2E700F006FF654980466D
S21440443001F0C0FA4FF07C5101F0B4F901F096FC5F
S214404440074601F063FA5849834601F0B3FA01463D
S214404450404601F0A5F956498146584601F0AAFA69
S2144044601F2F824621DC584A791E24F0FF0352F85B
S2144044702120934219D05146484601F091F9804692
S214404480C5F800804146484601F08AF9514601F099
S21440449087F9002E6860AADA08F1004800F100406B
S2144044A0C5F8008068607F42A1E75146484601F063
S2144044B077F9E215C0F3C753D31A082B8046DFDDE1
S2144044C03E490392584601F075FA804601464846F2
S2144044D001F066F901460446484601F061F9414656
S2144044E001F05EF936498046584601F063FA414687
S2144044F001F056F901468246204601F051F9039AEA
S214404500C0F3C753D21A192A80462EDC2860A1462B
S214404510B8E701F047F9254B24F00F049C420646C5
S21440452010D0234901F03EF901462860304601F09C
S21440453037F91F4901F036F94FF0FF37686056E704
S21440454003233AE71D4901F02DF91D49044601F0C1
S21440455029F901462860204601F022F9184901F061
S21440456021F94FF0FF37686041E71849584601F097
S21440457021FA01468046204601F012F9014681465E
S214404580204601F00DF9414601F00AF9104904466B
S214404590584601F00FFA214601F002F982466AE7D2
S2144045A0D80F493FE3CB1640800FC93FD00FC93FD5
S2144045B043443537800F4943148F40000044353715
S2144045C008A3852E84F9223F948E400000A3852EB2
S2144045D032318D2420F00042B2F1FF4FF8B5044648
S2144045E02ED262B3002803463DDBB2F5000F4FEAF9
S2144045F0E0502CD37F38C3F3160343F40003C207BE
S21440460048BF5B00002647105B00314619244FF038
S21440461080728D189D4202DC5B1BA9181644013C33
S2144046204FEA43034FEA5202F3D113B1013626F064
S2144046300106701000F17C5000EBC750F8BDF8BD85
S214404640014601F0B7F9214601F0ACF8F8BD14F484
S214404650000201D00EE00A465B001C0202F1010196
S214404660F9D5801AC6E7014601F09AF8014601F0EE
S21440467055FAF8BD4FF0FF32F3E700BF2DE9F84397
S21440468020F00044B4F1485F06460F4649DA01F090
S2144046906DFB002800F09D803146304601F08AF9D7
S2144046A04E49054601F086F94D4901F07BF829460A
S2144046B001F080F94B4901F073F8294601F07AF988
S2144046C0494901F06FF8294601F074F9474901F06D
S2144046D067F8294601F06EF9454901F063F8294626
S2144046E001F068F980464FF07C51284601F062F9A7
S2144046F041460446284601F05DF9394605463046AF
S21440470001F058F90146284601F04AF8014620468D
S21440471001F046F801464FF07E5001F041F8BDE802
S214404720F883014601F046F92C49054601F042F966
S2144047302B4901F037F8294601F03CF9294901F0A8
S2144047402FF8294601F036F9274901F02BF829467B
S21440475001F030F9254901F023F8294601F02AF9FD
S214404760234901F01FF8294601F024F9214B9C42C9
S2144047708046B8DD204B9C4227DC04F17F4421462E
S2144047804FF07E5001F00CF881464FF07C512846A1
S21440479001F010F9214601F003F841460446284648
S2144047A001F008F939460546304601F003F901465E
S2144047B0284600F0F5FF0146204600F0F1FF01468E
S2144047C0484600F0EDFFBDE8F883DFF834900B4C28
S2144047D0DBE74FF07E50BDE8F88300BF4ED747ADCD
S2144047E0F6740F317CF29334010DD037610BB63A34
S2144047F0ABAA2A3D9999993E0000483F0000903E5A
S2144048000000383F2DE9F04FDDB0904C0893013B57
S2144048100193D31E48BF131D669D0791DB1023EA04
S214404820E37354F82540099319460133A2EBC303BA
S2144048300594019A0493059B02909C18A1EB0206EE
S21440484017D43444002501341FAFDDF89C8108E0BE
S21440485058F8260001F05AF80136A64247F8040FE9
S21440486007D0002EF4DA01362846A64247F8040F51
S214404870F7D1059B002B28DB089B9E00029B351F2B
S2144048801D4420AB1E44059B48AA4FF0000902EB8E
S214404890830847AF019B002BC0F2B982029BB34608
S2144048A01C1FCA465BF8041D54F8040F01F082F83A
S2144048B00146504600F076FFAC428246F2D147F8B9
S2144048C004AF474506F10406E4D105980899029CD2
S2144048D06FF04042034613449B000A440DF1300AF1
S2144048E0191F04EB820553440AEB01020A920B930C
S2144048F080464FEA88035CAA0393D318B8F1000FAA
S21440490053F8509C22DD02EB8804543C0BAE47AF74
S2144049104FF06E51484601F04DF801F027FA00F08E
S214404920F5FF4FF08741834601F044F8014648467C
S21440493000F036FF01F01AFA54F8041946F8040F4E
S214404940584600F02FFFBC428146E1D1049E4846BF
S214404950314600F0BBFC4FF07851044601F02AF88F
S21440496000F06EFC4FF0824101F024F801462046EC
S21440497000F016FF044601F0F9F98146069000F073
S214404980C5FF0146204600F00BFF002E074640F3C9
S214404990E68008F1FF31C6F108035AF8212042FAB2
S2144049A003F000FA03F3D31A4A46C6F1070402445A
S2144049B04AF82130069243FA04F4002C5BDD069B4D
S2144049C0B8F1000F03F10103069340F33B82DAF897
S2144049D00060002E40F09482B8F1010F40F35582FB
S2144049E05246012352F8046F002E00F04A82591CAA
S2144049F0C6F5807688454AF8236014DD5AF82120AB
S214404A000233C2F1FF0298454AF821200BDD039A93
S214404A1052440AEB830391461A68C2F1FF0243F8F8
S214404A20042B4B45F8D1049B002B11DD049B012B36
S214404A304FF0010640F00E8208F1FF325AF822305D
S214404A4003F07F034AF822300EE200BF589240003F
S214404A50022C10D139464FF07E5000F0A1FE07469A
S214404A6004994FF07E5000F031FC0146384600F085
S214404A7097FE022407460021384601F02FF9002809
S214404A8000F08380059B08F1FF37BB420FDC08F13E
S214404A908043013B0B980AEB8303002253F804192A
S214404AA0834242EA0102F9D1002A40F09D80059BEC
S214404AB0013B5AF82330002B40F0F4810A9A012338
S214404AC052F8041901330029FAD043441A46069393
S214404AD008F10103934237DC0899099A01EB08076D
S214404AE020A901EB870706999E1801EB020906F1FB
S214404AF08046679A013E02EB860648AA02EB830888
S214404B00679B03EB8903039356F8040F00F0FEFE01
S214404B10019B47F8040B002B19DB029BBB461C1F6E
S214404B204FF000095BF8041D54F8040F00F042FFF4
S214404B300146484600F036FEAC428146F2D1039B21
S214404B4048F8049B9E42DFD1DDF81880D1E6039BEF
S214404B504FF000099E4248F8049BD5D1F4E705D1B2
S214404B6008F1FF335AF82340241226E74FF07C51D1
S214404B7001F0D2F8002840F0538104460021384620
S214404B8001F0ACF800287FF47DAF049E38467142B1
S214404B9000F09CFB4FF08741A146044601F0BCF86C
S214404BA0002800F08D814FF06E51204600F002FF45
S214404BB001F0DCF800F0AAFE4FF08741054600F011
S214404BC0F9FE0146204600F0EBFD01F0CFF84AF82A
S214404BD02800284601F0CAF808F101073346083392
S214404BE004934AF8270012E0049A5AF82730083A05
S214404BF0A14604925BB907F18043013B0AEB83036D
S214404C0053F80419013F083A0029F9D00492049950
S214404C104FF07E5000F05AFB002F0446C0F25C81F5
S214404C20BB0048A91A1D01EB0308019302924FF0FE
S214404C306E560AEB020B08F104055BF8040D00F013
S214404C4065FE214600F0B6FE314645F8040D204686
S214404C5000F0B0FED3450446EFD10026DDF814B090
S214404C600397A8F10408B246BBF1000FB8BF002571
S214404C7015DBA54EA54847460025002403E05445CD
S214404C800DDC56F8040F57F8041F00F093FE01465B
S214404C90284600F087FD0134A3450546EFDA5CABB5
S214404CA003EB8A03A8F1040843F8A05C46AB4345EF
S214404CB00AF1010AD8D1669B039F032B5AD8DFE836
S214404CC003F08E5F5F02002F40F30481019A5CA9D7
S214404CD08B1834AC53F8A06CA51855F804AC314684
S214404CE0504600F05FFD80460146504600F058FDB5
S214404CF0314600F057FD286045F8048DAC424646E4
S214404D00EBD1012F40F3E680019A5CA98B1814443E
S214404D1053F8A06C25460DF1D40A55F8048C31465C
S214404D20404600F03FFD07460146404600F038FD4D
S214404D30314600F037FD286045F8047DAA453E46DA
S214404D40EBD10020043436AD54F8041D00F02AFDA3
S214404D50A542F9D1B9F1000F00F0B980349A359BDD
S214404D6000F1004002F1004203F10043079CA060BE
S214404D7022606360069B03F007005DB0BDE8F08FDD
S214404D80019C34AD04342C44002054F8041D00F03B
S214404D9009FDAC42F9D1B9F1000F00F08580079AC1
S214404DA000F1004301461360349800F0F9FC002FF0
S214404DB00BDD34AD0124013455F8041F00F0F2FC3D
S214404DC0A742F8DAB9F1000F01D000F10040079B86
S214404DD05860069B03F007005DB0BDE8F08F029B6D
S214404DE034AD2B4400201C4654F8041D00F0DAFC79
S214404DF0A542F9D1B9F1000F01D000F10040079B60
S214404E001860069B03F007005DB0BDE8F08FCA4609
S214404E1047F804AF474506F104067FF43BAD54E53A
S214404E20069BB8F1000F03F101030693C8BF0224A6
S214404E303FF7CDAD39464FF07E5000F0B1FC02242E
S214404E40074618E6049B002B22DD0026049B012B18
S214404E503FF4F2AD022B07D108F1FF325AF8223068
S214404E6003F03F034AF82230022C7FF404AE394662
S214404E704FF07E5000F094FC0746002E3FF4FBAD0A
S214404E80EEE5013398457FF4ADAD049B002BDDDCA9
S214404E90022C7FF4F0AD39464FF07E5000F080FC97
S214404EA00746E8E5012310E6079B0146186034985C
S214404EB000F076FC002F3FF77CAF079B586088E7F2
S214404EC0204600F053FF47464AF828009FE6349AAB
S214404ED0359B4BE700203DE7669B032B3FF64AAFEA
S214404EE001A252F823F000BFFD4E4000F94E4000AC
S214404EF0F94E4000D54E400000204CE7002079E7B0
S214404F000121002374E500BF2C9240000000C93FF9
S214404F102DE9F84320F00043B3F1485F04460F46BE
S214404F20904603DA00F022FF002858D0214620465B
S214404F3000F040FD05460146204600F03BFD29496D
S214404F400646284600F036FD274900F029FC29464B
S214404F5000F030FD254900F025FC294600F02AFDEA
S214404F60234900F01DFC294600F024FD214900F0AD
S214404F7019FC8146B8F1000F22D04FF07C513846DC
S214404F8000F018FD49468046304600F013FD0146C5
S214404F90404600F005FC294600F00CFD394600F07E
S214404FA0FFFB15490546304600F004FD01462846FD
S214404FB000F0F8FB0146204600F0F2FBBDE8F8831F
S214404FC00146284600F0F6FC0B4900F0E9FB314666
S214404FD000F0F0FC214600F0E5FBBDE8F8832046F3
S214404FE0BDE8F883D3C92E2F342FD7321BEF38367F
S214404FF0010D50398988083CABAA2A3E00207047EC
S21440500000200149704700BF0000F87F2DE9F041BD
S21440501020F00045B5F1A14F0446064608DBB5F141
S214405020FF4F6FDC002840F3A0806F48BDE8F0815A
S2144050306E4B9D4277DCB5F1445F68DB4FF0FF373F
S2144050402146204600F0B6FC0146804600F0B2FC01
S2144050506749054600F0AEFC664900F0A3FB2946CA
S21440506000F0A8FC644900F09DFB294600F0A2FC35
S214405070624900F097FB294600F09CFC604900F02E
S21440508091FB294600F096FC5E4900F08BFB4146BA
S21440509000F090FC5C498046284600F08BFC5B495B
S2144050A000F07EFB294600F085FC594900F078FB6D
S2144050B0294600F07FFC574900F072FB294600F075
S2144050C079FC554900F06CFB294600F073FC7B1CCC
S2144050D0014640464CD000F065FB214600F06AFC95
S2144050E04E4B4F4D53F8271000F05AFB214600F028
S2144050F057FB014655F8270000F052FB002E30DBE8
S214405100BDE8F081014600F04DFBBDE8F081454921
S21440511000F048FB4FF07E5100F008FE00288DD08E
S2144051202046BDE8F08100F087F83F4B9D4204469C
S21440513029DCA3F5D0039D4244DC014600F032FB57
S2144051404FF07E5100F02CFB4FF080410546204644
S21440515000F028FB0146284600F0E0FC0027044605
S2144051606EE700F10040BDE8F0813048BDE8F081D0
S21440517000F018FB214600F01DFC0146204600F0DA
S2144051800FFBBDE8F0812A4B9D4214DC4FF07F5167
S21440519000F006FB4FF07F510546204600F00AFC23
S2144051A04FF07E5100F0FEFA0146284600F0B6FC6D
S2144051B00227044644E701461E4800F0AFFC03279A
S2144051C004463DE74FF07E5100F0EAFA4FF07E513C
S2144051D00546204600F0E6FA0146284600F09EFCCA
S2144051E0012704462CE700BFDB0FC93FFFFFDF3E29
S2144051F0D769853C59DA4B3D356B883D6E2EBA3DB6
S2144052002549123EABAAAA3E21A215BD6BF16E3DC2
S21440521095879D3D388EE33DCDCC4C3E7492400004
S21440522064924000CAF24971FFFF973FDB0FC9BF47
S214405230FFFF1B40000080BF20F00040704700BFCB
S2144052402DE9F04120F00047FC0D7F3C162C05462A
S21440525013DC002C80461BDB194F2741384214D004
S214405260184900F09FFA002100F060FD68B1002D5B
S2144052701BDB28EA0700BDE8F081B7F1FF4F04D3F7
S214405280014600F08FFABDE8F0812846BDE8F0817F
S2144052900C4900F087FA002100F048FD0028F4D0C1
S2144052A0002D08DB0020BDE8F0814FF4000343FAF0
S2144052B004F4A044DDE7002FE7D00348BDE8F081C2
S2144052C0FFFF7F00CAF24971000080BF30F0004205
S2144052D038B5034616D0B2F1FF4F0FD2B2F5000FE5
S2144052E00D4610D30446D00D2844FE282EDC002858
S2144052F01DDD24F0FF4444EAC05038BD014600F0AE
S21440530051FA38BD38BD4FF0984100F053FB184A6B
S2144053109542034607DB0446C0F3C7501938E3E717
S214405320144800F02BF8134900F044FB38BD10F148
S214405330160F13DA4CF2503295421946F0DD0E48FD
S21440534000F01CF80C4900F035FB38BD19460A48F9
S21440535000F014F8084900F02DFB38BD24F0FF4457
S214405360193044EAC0504FF04C5100F023FB38BD92
S214405370B03CFFFF6042A20DCAF2497101F0004105
S21440538020F000400843704781F0004102E000BF33
S21440539083F0004330B54FEA41044FEA430594EAB0
S2144053A0050F08BF90EA020F1FBF54EA000C55EAEB
S2144053B0020C7FEA645C7FEA655C00F0E2804FEABC
S2144053C05454D4EB5555B8BF6D420CDD2C4480EA9E
S2144053D0020281EA030382EA000083EA010180EACE
S2144053E0020281EA0303362D88BF30BD11F0004F1C
S2144053F04FEA01314FF4801C4CEA113102D0404252
S21440540061EB410113F0004F4FEA03334CEA13338C
S21440541002D0524263EB430394EA050F00F0A780A4
S214405420A4F10104D5F1200E0DDB02FA0EFC22FA9F
S21440543005F2801841F1000103FA0EF2801843FA93
S21440544005F359410EE0A5F120050EF1200E012A84
S21440545003FA0EFC28BF4CF0020C43FA05F3C018C2
S21440546051EBE37101F0004507D54FF0000EDCF13B
S214405470000C7EEB00006EEB0101B1F5801F1BD3E4
S214405480B1F5001F0CD349085FEA30004FEA3C0CE8
S21440549004F101044FEA445212F5800F80F09A80DE
S2144054A0BCF1004F08BF5FEA500C50F1000041EBE2
S2144054B0045141EA050130BD5FEA4C0C404141EBE6
S2144054C0010111F4801FA4F10104E9D191F0000F0D
S2144054D004BF01460020B1FA81F308BF2033A3F190
S2144054E00B03B3F120020CDA0C3208DD02F1140C87
S2144054F0C2F10C0201FA0CF021FA02F10CE002F1C2
S2144055001402D8BFC2F1200C01FA02F120FA0CFCBA
S214405510DCBF41EA0C019040E41AA2BF01EB045103
S214405520294330BD6FEA04041F3C1CDA0C340EDC01
S21440553004F11404C4F1200220FA04F001FA02F344
S21440554040EA030021FA04F345EA030130BDC4F102
S2144055500C04C4F1200220FA02F001FA04F340EAF7
S2144055600300294630BD21FA04F0294630BD94F0A8
S214405570000F83F4801306BF81F480110134013D8F
S2144055804EE77FEA645C18BF7FEA655C29D094EA00
S214405590050F08BF90EA020F05D054EA000C04BF7E
S2144055A01946104630BD91EA030F1EBF0021002069
S2144055B030BD5FEA545C05D14000494128BF41F008
S2144055C0004130BD14F580043CBF01F5801130BD6C
S2144055D001F0004545F0FE4141F470014FF00000F7
S2144055E030BD7FEA645C1ABF194610467FEA655CA8
S2144055F01CBF0B46024650EA013406BF52EA03354A
S21440560091EA030F41F4002130BD00BF90F0000F37
S21440561004BF0021704730B54FF4806404F1320473
S2144056204FF000054FF0000150E700BF90F0000F2C
S21440563004BF0021704730B54FF4806404F1320453
S21440564010F0004548BF40424FF000013EE700BF23
S21440565042004FEAE2014FEA31014FEA02701FBFB3
S21440566012F07F4393F07F4F81F06051704792F085
S214405670000F14BF93F07F4F704730B54FF46074FF
S21440568001F0004521F0004120E700BF50EA01024A
S21440569008BF704730B54FF000050AE050EA0102F7
S2144056A008BF704730B511F0004502D5404261EB67
S2144056B041014FF4806404F132045FEA915C3FF4A8
S2144056C0DCAE4FF003025FEADC0C18BF03325FEA41
S2144056D0DC0C18BF033202EBDC02C2F1200300FAF6
S2144056E003FC20FA02F001FA03FE40EA0E0021FA1B
S2144056F002F11444C1E600BF4FEA4102B2F1E04372
S21440570024BFB3F5001CDCF1FE5C0DD901F0004C63
S2144057104FEAC0024CEA5070B2F1004F40EB8300B3
S21440572008BF20F00100704711F0804F21D113F1DF
S2144057303872BCBF01F00040704741F480114FEA18
S2144057405252C2F11802C2F1200C10FA0CF320FAA1
S21440575002F018BF40F001004FEAC1234FEAD323BE
S21440576003FA0CFC40EA0C0023FA02F34FEA430328
S214405770CCE77FEA625307D150EA01331EBF4FF0B1
S214405780FE4040F44000704701F0004040F0FE40CC
S21440579040F40000704700BF80F0004002E000BFC9
S2144057A081F0004142001FBF5FEA410392EA030FC7
S2144057B07FEA226C7FEA236C6AD04FEA1262D2EB11
S2144057C01363C1BFD218414048404140B8BF5B4216
S2144057D0192B88BF704710F0004F40F4000020F0AF
S2144057E07F4018BF404211F0004F41F4000121F0C5
S2144057F07F4118BF494292EA030F3FD0A2F101020F
S21440580041FA03FC10EB0C00C3F1200301FA03F14C
S21440581000F0004302D5494260EB4000B0F5000F6F
S21440582013D3B0F1807F06D340084FEA310102F12E
S2144058300102FE2A51D2B1F1004F40EBC25008BFE0
S21440584020F0010040EA03007047490040EB0000AA
S21440585010F4000FA2F10102EDD1B0FA80FCACF1D9
S214405860080CB2EB0C0200FA0CF0AABF00EBC250D8
S21440587052421843BCBFD0401843704792F0000FC6
S21440588081F4000106BF80F400000132013BB5E719
S2144058904FEA41037FEA226C18BF7FEA236C21D08F
S2144058A092EA030F04D092F0000F08BF08467047F4
S2144058B090EA010F1CBF0020704712F07F4F04D1C2
S2144058C0400028BF40F00040704712F100723CBFD5
